:040000000AEF00F013
:10000800E9CF4AF0EACF4BF0CBEF01F000EE00F079
:10001800370EEE6AE806FDE100EE60F0330EEE6A98
:10002800E806FDE101EE00F0C80EEE6AE806FDE123
:10003800000EF86EA1EF01F0F36AF46A3B6A3C6ABD
:10004800D96A05503A6E0650396E07503E6E085010
:100058003D6E010E0001616F030E626F3D503D243D
:10006800636FD96AD9CF3FF0406A3D503F5C3E503C
:1000780040584AE2D950020DF350040F3F6E600F0A
:10008800E96EEA6A000EEA22D950020DD890393496
:10009800406E3A34416E0101000E4024426E010E5A
:1000A8004120436EF3504224E16EF4504320E26E47
:1000B800E6CF44F0E5CF45F045C044F0456A4450EA
:1000C800EF6ED950020DD89039343F6E3A34406EF5
:1000D800000E3F24416E010E4020426EF350412431
:1000E800E96EF4504220EA6ED950020DF350050F24
:1000F800436E0001600E4324E16EE26A000EE222C4
:10010800EFCFE7FFD92AAED7D8903D343F6E3E34C3
:10011800406E030E3F24486E000E4020496E610E6B
:10012800466E000E476A5BEC01F046C03BF047C0E4
:100138003CF03D50020DF350040F3F6E0001600E7D
:100148003F24E96EEA6A000EEA223BC0EFFF3D5009
:10015800020DF350050F3F6E600FE96EEA6A000E5C
:10016800EA223C50EF6E3D50020DF350050F606FD0
:100178009D8812004C6A9DBA9EAA1200AECF4CF020
:1001880030D0CD907F0ECE6E620ECF6E9E909D8049
:10019800CD80026A006A120000EE02F0EFCF4DF047
:1001A800EF2A4D50030FE96EEA6A4CC0EFFF020ECA
:1001B800356ECD90D6EC01F0620CFA0E02600FD0CD
:1001C80000EE02F0EFCF4DF0EF2A4D50030FE96E2D
:1001D800EA6A4CC0EFFFCD90D6EC01F0620C356AAC
:1001E80012003550CEE0010AD7E0030AE6E012001B
:1001F8000550F46E0650F36E07503A6E0850396E8B
:10020800D890F3343B6EF4343C6E0101000E3B246D
:10021800E96E010E3C20EA6E39C0EEFF3AC0EDFFF0
:10022800D96A0250D95C12E2D950030FE96EEA6A22
:10023800D950010F396E0001600E3924E16EE26A6F
:10024800000EE222EFCFE7FFD92AEBD702C060F019
:100258009D881200000415E1006A02C048F0496A4E
:10026800030E466E000E476A5BEC01F047504610DD
:1002780007E10304D8A4032803E1010E016E01D0AD
:10028800026A0150D8B41200016A09D020EF00F0C8
:10029800FCEC00F01200016A026A006A12000450C5
:1002A800030AF4E0050AF4E0100AF4E0F4D7E16880
:1002B800D9684806D8A049064828D8B449281EE075
:1002C80046C0E9FF47C0EAFFEF50D918F36EF46A59
:1002D800464A472AFE0EF324F66E7D0EF420F76E8A
:1002E8000800F550E118D96EFE0EF324F66E7E0E66
:1002F800F420F76E0800F5CFE1FFDBD7E150476E39
:10030800D950466E12009DB89EA812000001605197
:10031800D8B412003650010F4C6E600FE96EEA6ACD
:10032800000EEA22EF50AD6E362A60513662120096
:100338009D98366A606B026A12000F013A6B800E54
:10034800946EC00E826E8268FFD72EEC01F0385092
:100358000101011902E137500019F7E000C137F037
:1003680001C138F037C082FFF0D79EB09DA01200BF
:1003780007D0010E356E08D0010E356E006E04D020
:100388003550F7E0020AF8E0CD909E901200BEECDE
:1003980000F087EC01F0B9EC01F04BC0EAFF4AC06D
:1003A800E9FF11007F0ECE6E620ECF6E9E909D808B
:0403B800CD801200E2
:107DFE0000C1814001C0804101C0804100C181406D
:107E0E0001C0804100C1814000C1814001C080415C
:107E1E0001C0804100C1814000C1814001C080414C
:107E2E0000C1814001C0804101C0804100C181403C
:107E3E0001C0804100C1814000C1814001C080412C
:107E4E0000C1814001C0804101C0804100C181401C
:107E5E0000C1814001C0804101C0804100C181400C
:107E6E0001C0804100C1814000C1814001C08041FC
:107E7E0001C0804100C1814000C1814001C08041EC
:107E8E0000C1814001C0804101C0804100C18140DC
:107E9E0000C1814001C0804101C0804100C18140CC
:107EAE0001C0804100C1814000C1814001C08041BC
:107EBE0000C1814001C0804101C0804100C18140AC
:107ECE0001C0804100C1814000C1814001C080419C
:107EDE0001C0804100C1814000C1814001C080418C
:107EEE0000C1814001C0804101C0804100C181407C
:107EFE0000C0C101C30302C2C60607C705C5C4043C
:107F0E00CC0C0DCD0FCFCE0E0ACACB0BC90908C8AB
:107F1E00D81819D91BDBDA1A1EDEDF1FDD1D1CDC9B
:107F2E0014D4D515D71716D6D21213D311D1D0100B
:107F3E00F03031F133F3F23236F6F737F53534F4FB
:107F4E003CFCFD3DFF3F3EFEFA3A3BFB39F9F8386B
:107F5E0028E8E929EB2B2AEAEE2E2FEF2DEDEC2C5B
:107F6E00E42425E527E7E62622E2E323E12120E0CB
:107F7E00A06061A163A3A26266A6A767A56564A4BB
:107F8E006CACAD6DAF6F6EAEAA6A6BAB69A9A8682B
:107F9E0078B8B979BB7B7ABABE7E7FBF7DBDBC7C1B
:107FAE00B47475B577B7B67672B2B373B17170B08B
:107FBE00509091519353529296565797559594547B
:107FCE009C5C5D9D5F9F9E5E5A9A9B5B99595898EB
:107FDE00884849894B8B8A4A4E8E8F4F8D4D4C8CDB
:107FEE00448485458747468682424383418180404B
:027FFE00000081
:00000001FF
