:040000000CEF00F011
:10000800FACF18F2FBCF19F2E9CF1AF2ECEF04F0AD
:1000180001EE36F05E0EF66E000EF76E0900F5CFB3
:10002800EEFF00EE00F011EE36F01FEC00F0000ECF
:10003800F86E29EF05F0EE6AE550E150FCE1E25078
:10004800FAE112000900F5CFEEFFE550E150FAE1C0
:10005800E250F8E112000100000E02010201066FF1
:10006800000E0201076F000E02010201046F000E6C
:100078000201056F0201086F000E02010201016F03
:1000880002010851055002010201036F06500201E6
:10009800026F075002010201076F08500201066F44
:1000A8000201086F010E01010101016F02010851EF
:1000B8000201086F030E01010101026F02010851DC
:1000C8000201020106510201062501010101036F27
:1000D8000201086F000E02010201016F02010851BE
:1000E800ECEF00F0020102010151020DF3CF08F21A
:1000F800040E020108270101000E02010825E96E1D
:10010800EA6A0101010EEA2202010201015102011B
:10011800020102250201096F000E020102010321FA
:1001280002010A6FD8900201093502010B6F020122
:100138000A3502010C6F0001350E02010B25E16E34
:100148000001000E02010C21E26EE6CF0DF2E5CFB0
:100158000EF20EC20DF202010E6B02010D51EF6E8E
:100168000201020101510201020102250201086F88
:10017800000E0201020103210201096FD890020159
:10018800083502010A6F0201093502010B6F0001EF
:10019800350E02010A25E96E0001000E02010B214D
:1001A800EA6E020102010151020DF3CF0CF2050EB5
:1001B80002010C270101000E02010C25E16EE26A22
:1001C8000101010EE222EFCFE7FF02010201012B3C
:1001D800020101C208F20201096B02010201065183
:1001E8000201085D02010201075102010959D8A064
:1001F80000EF01F002EF01F076EF00F0D890020175
:10020800020106350201086F0201020107350201E9
:10021800096F030E0201082502010201116F000E89
:10022800020109210201126F0101010E02010201FE
:100238000F6F0101010E0201106F44EC04F00FC2B0
:1002480004F210C205F20201D8900201063502013B
:10025800086F040E020108270101000E020108259B
:10026800E96EEA6A0101010EEA22020104C2EFFF07
:100278000201D890020106350201086F050E02013D
:1002880008270101000E02010825E96EEA6A01014A
:10029800010EEA22020102010551EF6E020102017C
:1002A800065102010625050F01010101006F9D8815
:1002B80012000201356F000E02010201306F0201C7
:1002C8003551020102012EAF6CEF01F06EEF01F023
:1002D80086EF01F0020102012E1F02012D1F02010B
:1002E8002C1F02012B6D000E02012C2302012D236D
:1002F80002012E230201356F010E02010201306F47
:1003080002013551020102012AAF8DEF01F08FEF92
:1003180001F0A3EF01F0020102012A1F0201291FC7
:100328000201281F0201276D000E02012823020185
:10033800292302012A23010E02010201301B000EAB
:1003480002010201316F000E0201326F000E02013C
:10035800336F000E0201346F02012E512B112C1144
:100368002D11D8B4BAEF01F0BCEF01F02FEF02F075
:100378000201356F010E020102012F6F0201355192
:10038800D3EF01F00201D89002012B3702012C377C
:1003980002012D3702012E37020102012F2B020123
:1003A80002012EAFDAEF01F0DCEF01F0C6EF01F049
:1003B8000201D89002013137020132370201333786
:1003C80002013437020102012B5102010201275DAB
:1003D800020102012C510201020128590201020105
:1003E8002D51020102012959020102012E51020177
:1003F80002012A59D8A003EF02F005EF02F020EF1E
:1004080002F0020102012B5102010201275F0201E1
:1004180002012C5102010201285B020102012D5147
:1004280002010201295B020102012E5102010201AF
:100438002A5B0201020131810201D89002012E33A8
:1004480002012D3302012C3302012B330201020178
:100458002F2FDCEF01F0020102013051D8B437EF41
:1004680002F039EF02F049EF02F002010201341FF5
:100478000201331F0201321F0201316D000E020119
:100488003223020133230201342331C227F232C25C
:1004980028F233C229F234C22AF253EF02F01200D2
:1004A8000201276F000E02010201266F0201275187
:1004B8009DAA61EF02F063EF02F0E3EF02F09EAA5B
:1004C80068EF02F06AEF02F0E3EF02F0AECF26F237
:1004D800D8EF02F0CD907F0ECE6E620ECF6E9E905A
:1004E8009D80CD800201276F000E026E0201275108
:1004F8000201276F000E006E02012751E3EF02F0A0
:1005080000EE02F0EFCF27F2010EEF26030E0201F4
:100518002727000E02012725E96EEA6A000EEA2263
:10052800020126C2EFFF0201276F020E000100013F
:10053800FF6F02012751CD907F0ECE6E620ECF6EF7
:100548009E909D80CD80E3EF02F0FA0E0260AFEF3F
:1005580002F0B1EF02F0CEEF02F000EE02F0EFCFC2
:1005680027F2010EEF26030E02012727000E0201D3
:100578002725E96EEA6A000EEA22020126C2EFFF89
:10058800CD907F0ECE6E620ECF6E9E909D80CD80F8
:10059800D6EF02F00201276F000E00010001FF6F85
:1005A80002012751E3EF02F000010001FF51000AA8
:1005B80091E0010AA5E0030AC8E0D6EF02F01200B4
:1005C8000004D8A4EAEF02F0ECEF02F031EF03F0F8
:1005D8000201006F000E006E02010051020102C00C
:1005E80011F202010201126B030E020102010F6FE8
:1005F800000E0201106F44EC04F0020110510F11BB
:10060800D8A409EF03F00BEF03F02BEF03F003047A
:10061800D8B411EF03F013EF03F01BEF03F0032836
:10062800D8A419EF03F01BEF03F023EF03F0020146
:10063800006F010E016E0201005129EF03F0020163
:10064800006F000E026E0201005131EF03F002014B
:10065800006F000E026E020100510150D8B437EF4E
:1006680003F039EF03F068EF03F00201006F000EAA
:10067800016E020100515FEF03F030EC00F068EF0B
:1006880003F0E6EC03F068EF03F068EF03F0020113
:10069800006F000E016E020100510201006F000E92
:1006A800026E020100510201006F000E006E02018D
:1006B800005168EF03F00450030ADFE0050AE1E0A7
:1006C800100AE3E04BEF03F01200DCEF03F0F6EC66
:1006D80005F001010101344B352B0201266F020E92
:1006E80001010101366F02012651E5EF03F0010116
:1006F8000101344B352B010101013451060A351132
:10070800D8A489EF03F08BEF03F0D0EF03F0FCECF3
:1007180005F0000E01010101346F000E0101356F73
:10072800FCEC05F000010001FE51FD11D8B49FEF6B
:1007380003F0A1EF03F0C1EF03F000010201FDC0D7
:100748002BF200010201FEC02CF2020102012D6B06
:1007580002012E6BA00E02010201276F860E020114
:10076800286F010E0201296F000E02012A6F5DEC4D
:1007780001F027C235F028C236F0000E0001000152
:10078800FD6F000E0001FE6F0201266F010E0101D0
:100798000101366F02012651E5EF03F00201266FD1
:1007A800010E01010101366F02012651E5EF03F048
:1007B800010101013651010A8AE0030A98E0D2EFEB
:1007C80003F01200055002010201036F06500201F6
:1007D800026F07500201056F08500201046FD8909C
:1007E8000201020102350201066F0201020103350E
:1007F8000201076F0001350E02010625E96E0001AE
:10080800000E02010721EA6E04C2EEFF05C2EDFFE9
:100818000201046F000E02010201016F020104517E
:1008280035EF04F001C204F2030E02010427000EA2
:1008380002010425E96EEA6A000EEA2201C205F205
:10084800010E020105270101000E02010525E16ED6
:10085800E26A0101010EE222EFCFE7FF0201020185
:10086800012B025002010201015DD8A03EEF04F005
:1008780040EF04F016EF04F002C000F19D8812006A
:100888000201020113690201020114697FEF04F0F9
:100898000FC2E9FF10C2EAFFEF500201020114196A
:1008A8000201176F0201175102010201156F0201BF
:1008B800166B020102010F4B102BFE0E0201020102
:1008C8001525F66E7D0E02011621F76E0800F5500B
:1008D80002010201131902010201146FFE0E020146
:1008E80002011525F66E7E0E02011621F76E08002C
:1008F8000201F5CF13F2020102011107D8A0120775
:1009080002011129D8B41229D8A48DEF04F08FEF71
:1009180004F04CEF04F0020102011351020102013C
:10092800106F02010201145102010F6F9CEF04F0D5
:1009380012009DA8A2EF04F0A4EF04F0EBEF04F07E
:100948009EA8A9EF04F0ABEF04F0EBEF04F001016F
:1009580001010051D8B4B3EF04F0B5EF04F0EBEFA8
:1009680004F033C126F2010E020126270101000E10
:1009780002012625E96EEA6A0101010EEA22EF501A
:10098800AD6E01010101332B01010101005101018B
:1009980001013363D2EF04F0D4EF04F0EBEF04F07D
:1009A8009D980201266F000E01010101336F0201BB
:1009B80026510201266F000E01010101006F02019C
:1009C80026510201266F000E026E02012651120006
:1009D800EACF1BF2E1CF1CF2E2CF1DF2D9CF1EF213
:1009E800DACF1FF2F3CF20F2F4CF21F2F6CF22F2C2
:1009F800F7CF23F2F8CF24F2F5CF25F254EC02F02A
:100A08009DEC04F065EC05F09DEC05F0CCEC05F0F0
:100A180025C2F5FF24C2F8FF23C2F7FF22C2F6FF62
:100A280021C2F4FF20C2F3FF1FC2DAFF1EC2D9FFA2
:100A38001DC2E2FF1CC2E1FF1BC2EAFF1AC2E9FFA6
:100A480019C2FBFF18C2FAFF1100000E0F010F01B7
:100A58003A6F800E946EC00E826E000E0F010F0169
:100A6800386F929A809ACD90CD9CCD9ECD98CD9A94
:100A78007F0ECE6E620ECF6E9E909D80CD80F28CE2
:100A8800F28EAB8EAC98470EAF6EAC94AB88AC8A46
:100A98009D8ADEEC05F0EBEC05F0828AE4EC02F0CE
:100AA800000100013B053C11D8A45DEF05F05FEFA4
:100AB80005F061EF05F061EF05F052EF05F00CEF7E
:100AC80000F09EA06AEF05F06CEF05F09CEF05F0D2
:100AD8009DA071EF05F073EF05F09CEF05F091EF25
:100AE80005F00201266F010E00010001FF6F0201EF
:100AF80026519AEF05F00201266F010E0001000150
:100B0800FF6F020126510201266F010E006E0201DD
:100B180026519AEF05F09AEF05F000010001FF5108
:100B2800000ADFE0020AE7E08FEF05F0CD909E9023
:100B38001200A0A2A2EF05F0A4EF05F0CBEF05F09C
:100B4800A1A2A9EF05F0ABEF05F0CBEF05F0A1925C
:100B5800CC0EB26ED40EB36E00010001FD4BFE2B1D
:100B680000010001FE51170A700ED8B4FD19D8A46F
:100B7800C0EF05F0C2EF05F0CBEF05F0000E356EC3
:100B8800000E366E00010001FD07D8A0FE07120016
:100B9800F2A2D1EF05F0D3EF05F0DDEF05F0F2A8F2
:100BA800D8EF05F0DAEF05F0DDEF05F0F29269EC29
:100BB80003F01200B190B19CB19EB198B19ACC0EDD
:100BC800B26ED40EB36EA192A082B1801200000E54
:100BD8000F010F01396F939081809380F19CF28807
:100BE800F2921200CC0EB26ED40EB36EB180120027
:0C0BF800B190CC0EB26ED40EB36E1200A1
:107DFE0000C1814001C0804101C0804100C181406D
:107E0E0001C0804100C1814000C1814001C080415C
:107E1E0001C0804100C1814000C1814001C080414C
:107E2E0000C1814001C0804101C0804100C181403C
:107E3E0001C0804100C1814000C1814001C080412C
:107E4E0000C1814001C0804101C0804100C181401C
:107E5E0000C1814001C0804101C0804100C181400C
:107E6E0001C0804100C1814000C1814001C08041FC
:107E7E0001C0804100C1814000C1814001C08041EC
:107E8E0000C1814001C0804101C0804100C18140DC
:107E9E0000C1814001C0804101C0804100C18140CC
:107EAE0001C0804100C1814000C1814001C08041BC
:107EBE0000C1814001C0804101C0804100C18140AC
:107ECE0001C0804100C1814000C1814001C080419C
:107EDE0001C0804100C1814000C1814001C080418C
:107EEE0000C1814001C0804101C0804100C181407C
:107EFE0000C0C101C30302C2C60607C705C5C4043C
:107F0E00CC0C0DCD0FCFCE0E0ACACB0BC90908C8AB
:107F1E00D81819D91BDBDA1A1EDEDF1FDD1D1CDC9B
:107F2E0014D4D515D71716D6D21213D311D1D0100B
:107F3E00F03031F133F3F23236F6F737F53534F4FB
:107F4E003CFCFD3DFF3F3EFEFA3A3BFB39F9F8386B
:107F5E0028E8E929EB2B2AEAEE2E2FEF2DEDEC2C5B
:107F6E00E42425E527E7E62622E2E323E12120E0CB
:107F7E00A06061A163A3A26266A6A767A56564A4BB
:107F8E006CACAD6DAF6F6EAEAA6A6BAB69A9A8682B
:107F9E0078B8B979BB7B7ABABE7E7FBF7DBDBC7C1B
:107FAE00B47475B577B7B67672B2B373B17170B08B
:107FBE00509091519353529296565797559594547B
:107FCE009C5C5D9D5F9F9E5E5A9A9B5B99595898EB
:107FDE00884849894B8B8A4A4E8E8F4F8D4D4C8CDB
:107FEE00448485458747468682424383418180404B
:027FFE00000081
:020000040030CA
:0E000000FF331F3FFFBF85FF0FC00FE00F4013
:00000001FF
