:040000000CEF00F011
:10000800FACF1AF2FBCF1BF2E9CF1CF292EF03F002
:1000180000EE00F010EEFFF01CEC00F001EE00F036
:1000280010EE33F01CEC00F0000EF86ECBEF03F08E
:10003800EE6AE550E150FCE1E250FAE11200000EF0
:1000480002010201086F000E0201096F000E020191
:100058000201066F000E0201076F02010A6F000E0F
:1000680002010201036F02010A5105500201020157
:10007800056F06500201046F075002010201096F63
:1000880008500201086F02010A6F010E0101010107
:10009800016F02010A5102010A6F030E01010101F9
:1000A800026F02010A5102010201085102010825EA
:1000B80001010101036F02010A6F000E0201020132
:1000C800036F02010A51DFEF00F002010201035140
:1000D800020DF3CF0AF2040E02010A270101000EF5
:1000E80002010A25E96EEA6A0101010EEA2202010B
:1000F8000201035102010201042502010B6F000EE7
:1001080002010201052102010C6FD89002010B3592
:1001180002010D6F02010C3502010E6F0001350E50
:1001280002010D25E16E0001000E02010E21E26EB2
:10013800E6CF0FF2E5CF10F210C20FF20201106BFA
:1001480002010F51EF6E0201020103510201020187
:10015800042502010A6F000E0201020105210201B5
:100168000B6FD89002010A3502010C6F02010B35A2
:1001780002010D6F0001350E02010C25E96E000128
:10018800000E02010D21EA6E020102010351020D67
:10019800F3CF0EF2050E02010E270101000E020137
:1001A8000E25E16EE26A0101010EE222EFCFE7FFC0
:1001B80002010201032B020103C20AF202010B6BC6
:1001C80002010201085102010A5D020102010951FE
:1001D80002010B59D8A0F3EF00F0F5EF00F069EF3A
:1001E80000F0D89002010201083502010A6F0201ED
:1001F8000201093502010B6F030E02010A250201F3
:100208000201136F000E02010B210201146F01019C
:10021800010E02010201116F0101010E0201126FAC
:10022800B1EC02F011C206F212C207F20201D89034
:100238000201083502010A6F040E02010A270101B2
:10024800000E02010A25E96EEA6A0101010EEA229E
:10025800020106C2EFFF0201D8900201083502012F
:100268000A6F050E02010A270101000E02010A2584
:10027800E96EEA6A0101010EEA2202010201075150
:10028800EF6E02010201085102010825050F010164
:100298000101006FA38812000004D8A456EF01F0F2
:1002A80058EF01F09DEF01F00201026F000E006EA1
:1002B80002010251020102C013F202010201146B91
:1002C800030E02010201116F000E0201126FB1EC60
:1002D80002F0020112511111D8A475EF01F077EF65
:1002E80001F097EF01F00304D8B47DEF01F07FEF40
:1002F80001F087EF01F00328D8A485EF01F087EF1C
:1003080001F08FEF01F00201026F010E016E020190
:10031800025195EF01F00201026F000E026E020118
:1003280002519DEF01F00201026F000E026E020100
:1003380002510150D8B4A3EF01F0A5EF01F0D4EFBA
:1003480001F00201026F000E016E02010251CBEFB3
:1003580001F023EC00F0D4EF01F053EC02F0D4EFFD
:1003680001F0D4EF01F00201026F000E016E0201EC
:1003780002510201026F000E026E020102510201D7
:10038800026F000E006E02010251D4EF01F004501A
:10039800030ADFE0050AE1E0100AE3E0B7EF01F045
:1003A80012000201296F000E02010201286F0201EA
:1003B8002951A3AAE2EF01F0E4EF01F052EF02F0B5
:1003C800A4AAE9EF01F0EBEF01F052EF02F074CFCD
:1003D80028F247EF02F015EC04F00201296F000E35
:1003E800026E020129510201296F000E006E0201FE
:1003F800295152EF02F000EE02F0EFCF29F2010E80
:10040800EF26030E02012927000E02012925E96EB5
:10041800EA6A000EEA22020128C2EFFF0201296FF0
:10042800020E00010001FD6F0201295115EC04F0D4
:1004380052EF02F0FA0E026024EF02F026EF02F00B
:100448003DEF02F000EE02F0EFCF29F2010EEF26A9
:10045800030E02012927000E02012925E96EEA6A26
:10046800000EEA22020128C2EFFF15EC04F045EF66
:1004780002F00201296F000E00010001FD6F020168
:10048800295152EF02F000010001FD51000AA3E0DA
:10049800010AB1E0030ACEE045EF02F01200055070
:1004A80002010201056F06500201046F07500201A4
:1004B800076F08500201066FD89002010201043547
:1004C8000201086F0201020105350201096F0001EE
:1004D800350E02010825E96E0001000E020109210E
:1004E800EA6E06C2EEFF07C2EDFF0201066F000EBC
:1004F80002010201036F02010651A2EF02F003C2DA
:1005080006F2030E02010627000E02010625E96E17
:10051800EA6A000EEA2203C207F2010E0201072767
:100528000101000E02010725E16EE26A0101010ED8
:10053800E222EFCFE7FF02010201032B0250020182
:100548000201035DD8A0ABEF02F0ADEF02F083EF3C
:1005580002F002C000F1A38812000201020115692D
:10056800020102011669ECEF02F011C2E9FF12C2A2
:10057800EAFFEF500201020116190201196F020188
:10058800195102010201176F0201186B02010201E1
:10059800114B122BFE0E020102011725F66E7D0E7D
:1005A80002011821F76E0800F55002010201151921
:1005B80002010201166FFE0E020102011725F66EF6
:1005C8007E0E02011821F76E08000201F5CF15F220
:1005D800020102011307D8A0140702011329D8B495
:1005E8001429D8A4FAEF02F0FCEF02F0B9EF02F0F8
:1005F80002010201155102010201126F02010201FA
:1006080016510201116F09EF03F01200A3A80FEFB2
:1006180003F011EF03F058EF03F0A4A816EF03F06E
:1006280018EF03F058EF03F0010101010051D8B4AD
:1006380020EF03F022EF03F058EF03F0FEC028F29A
:10064800010E020128270101000E02012825E96E8A
:10065800EA6A0101010EEA22EF50736E00010001FF
:10066800FE2B01010101005100010001FE633FEF73
:1006780003F041EF03F058EF03F0A3980201286F4D
:10068800000E00010001FE6F020128510201286FCF
:10069800000E01010101006F020128510201286FBB
:1006A800000E026E0201285112009EA05EEF03F0B8
:1006B80060EF03F091EF03F09DA065EF03F067EFA3
:1006C80003F091EF03F085EF03F00201286F010EAC
:1006D80000010001FD6F020128518EEF03F00201B5
:1006E800286F010E00010001FD6F0201285102016F
:1006F800286F010E006E020128518EEF03F08EEF75
:1007080003F000010001FD51000ADFE0020AE7E002
:1007180083EF03F01EEC04F09E901200EACF1DF266
:10072800E1CF1EF2E2CF1FF2D9CF20F2DACF21F2C9
:10073800F3CF22F2F4CF23F2F6CF24F2F7CF25F24B
:10074800F8CF26F2F5CF27F2D5EC01F00AEC03F04A
:1007580059EC03F027C2F5FF26C2F8FF25C2F7FFC0
:1007680024C2F6FF23C2F4FF22C2F3FF21C2DAFF3C
:1007780020C2D9FF1FC2E2FF1EC2E1FF1DC2EAFF6D
:100788001CC2E9FF1BC2FBFF1AC2FAFF1100000ED0
:100798000F010F013A6F000E946EC00E826EF5ECD9
:1007A80003F0F28CF28E03EC04F050EC01F002013D
:1007B80002010151361804E1020102010051351805
:1007C800D8B4E9EF03F0EBEF03F0F1EF03F035C035
:1007D80000F236C001F200C282FFD9EF03F00CEF3D
:1007E80000F0CD90CD8CCD9ECD98CD9A7F0ECE6E5B
:1007F800620ECF6E9E909D800CEC04F01200718EFC
:100808007298470E756E72847188728AA38A120074
:10081800CD907F0ECE6E620ECF6E9E909D80CD8065
:100828001200CD907F0ECE6E620ECF6E9E909D8090
:08083800CD801200CD901200EA
:107DFE0000C1814001C0804101C0804100C181406D
:107E0E0001C0804100C1814000C1814001C080415C
:107E1E0001C0804100C1814000C1814001C080414C
:107E2E0000C1814001C0804101C0804100C181403C
:107E3E0001C0804100C1814000C1814001C080412C
:107E4E0000C1814001C0804101C0804100C181401C
:107E5E0000C1814001C0804101C0804100C181400C
:107E6E0001C0804100C1814000C1814001C08041FC
:107E7E0001C0804100C1814000C1814001C08041EC
:107E8E0000C1814001C0804101C0804100C18140DC
:107E9E0000C1814001C0804101C0804100C18140CC
:107EAE0001C0804100C1814000C1814001C08041BC
:107EBE0000C1814001C0804101C0804100C18140AC
:107ECE0001C0804100C1814000C1814001C080419C
:107EDE0001C0804100C1814000C1814001C080418C
:107EEE0000C1814001C0804101C0804100C181407C
:107EFE0000C0C101C30302C2C60607C705C5C4043C
:107F0E00CC0C0DCD0FCFCE0E0ACACB0BC90908C8AB
:107F1E00D81819D91BDBDA1A1EDEDF1FDD1D1CDC9B
:107F2E0014D4D515D71716D6D21213D311D1D0100B
:107F3E00F03031F133F3F23236F6F737F53534F4FB
:107F4E003CFCFD3DFF3F3EFEFA3A3BFB39F9F8386B
:107F5E0028E8E929EB2B2AEAEE2E2FEF2DEDEC2C5B
:107F6E00E42425E527E7E62622E2E323E12120E0CB
:107F7E00A06061A163A3A26266A6A767A56564A4BB
:107F8E006CACAD6DAF6F6EAEAA6A6BAB69A9A8682B
:107F9E0078B8B979BB7B7ABABE7E7FBF7DBDBC7C1B
:107FAE00B47475B577B7B67672B2B373B17170B08B
:107FBE00509091519353529296565797559594547B
:107FCE009C5C5D9D5F9F9E5E5A9A9B5B99595898EB
:107FDE00884849894B8B8A4A4E8E8F4F8D4D4C8CDB
:107FEE00448485458747468682424383418180404B
:027FFE00000081
:00000001FF
