:040000000CEF00F011
:10000800FACF19F2FBCF1AF2E9CF1BF260EF05F035
:1000180001EE39F05E0EF66E000EF76E0900F5CFB0
:10002800EEFF00EE00F011EE39F01FEC00F0000ECC
:10003800F86EEEEF03F0EE6AE550E150FCE1E250B5
:10004800FAE112000900F5CFEEFFE550E150FAE1C0
:10005800E250F8E112000100000E02010201076FF0
:10006800000E0201086F000E02010201056F000E6A
:100078000201066F0201096F000E02010201026F00
:1000880002010951055002010201046F06500201E4
:10009800036F075002010201086F08500201076F41
:1000A8000201096F010E01010101016F02010951ED
:1000B8000201096F030E01010101026F02010951DA
:1000C8000201020107510201072501010101036F25
:1000D8000201096F000E02010201026F02010951BB
:1000E800ECEF00F0020102010251020DF3CF09F218
:1000F800040E020109270101000E02010925E96E1B
:10010800EA6A0101010EEA2202010201025102011A
:100118000201032502010A6F000E020102010421F7
:1001280002010B6FD89002010A3502010C6F02011F
:100138000B3502010D6F0001350E02010C25E16E31
:100148000001000E02010D21E26EE6CF0EF2E5CFAE
:100158000FF20FC20EF202010F6B02010E51EF6E89
:100168000201020102510201020103250201096F85
:10017800000E02010201042102010A6FD890020157
:10018800093502010B6F02010A3502010C6F0001EB
:10019800350E02010B25E96E0001000E02010C214B
:1001A800EA6E020102010251020DF3CF0DF2050EB3
:1001B80002010D270101000E02010D25E16EE26A20
:1001C8000101010EE222EFCFE7FF02010201022B3B
:1001D800020102C209F202010A6B0201020107517F
:1001E8000201095D02010201085102010A59D8A061
:1001F80000EF01F002EF01F076EF00F0D890020175
:10020800020107350201096F0201020108350201E6
:100218000A6F030E0201092502010201126F000E86
:1002280002010A210201136F0101010E02010201FC
:10023800106F0101010E0201116FB8EC04F010C239
:1002480005F211C206F20201D89002010735020137
:10025800096F040E020109270101000E0201092598
:10026800E96EEA6A0101010EEA22020105C2EFFF06
:100278000201D890020107350201096F050E02013B
:1002880009270101000E02010925E96EEA6A010148
:10029800010EEA22020102010651EF6E020102017B
:1002A800075102010725050F01010101006F9D8813
:1002B80012000201366F000E02010201316F0201C5
:1002C8003651020102012FAF6CEF01F06EEF01F021
:1002D80086EF01F0020102012F1F02012E1F020109
:1002E8002D1F02012C6D000E02012D2302012E2369
:1002F80002012F230201366F010E02010201316F44
:1003080002013651020102012BAF8DEF01F08FEF90
:1003180001F0A3EF01F0020102012B1F02012A1FC5
:100328000201291F0201286D000E02012923020182
:100338002A2302012B23010E02010201311B000EA8
:1003480002010201326F000E0201336F000E02013A
:10035800346F000E0201356F02012F512C112D113F
:100368002E11D8B4BAEF01F0BCEF01F02FEF02F074
:100378000201366F010E02010201306F020136518F
:10038800D3EF01F00201D89002012C3702012D377A
:1003980002012E3702012F3702010201302B020120
:1003A80002012FAFDAEF01F0DCEF01F0C6EF01F048
:1003B8000201D89002013237020133370201343783
:1003C80002013537020102012C5102010201285DA8
:1003D800020102012D510201020129590201020103
:1003E8002E51020102012A59020102012F51020174
:1003F80002012B59D8A003EF02F005EF02F020EF1D
:1004080002F0020102012C5102010201285F0201DF
:1004180002012D5102010201295B020102012E5144
:10042800020102012A5B020102012F5102010201AD
:100438002B5B0201020132810201D89002012F33A5
:1004480002012E3302012D3302012C330201020175
:10045800302FDCEF01F0020102013151D8B437EF3F
:1004680002F039EF02F049EF02F002010201351FF4
:100478000201341F0201331F0201326D000E020116
:100488003323020134230201352332C228F233C256
:1004980029F234C22AF235C22BF253EF02F01200CD
:1004A8000201286F000E02010201276F0201285184
:1004B8009DAA61EF02F063EF02F0E3EF02F09EAA5B
:1004C80068EF02F06AEF02F0E3EF02F0AECF27F236
:1004D800D8EF02F0CD907F0ECE6E620ECF6E9E905A
:1004E8009D80CD800201286F000E026E0201285106
:1004F8000201286F000E006E02012851E3EF02F09E
:1005080000EE02F0EFCF28F2010EEF26030E0201F3
:100518002827000E02012825E96EEA6A000EEA2261
:10052800020127C2EFFF0201286F020E000100013D
:10053800FF6F02012851CD907F0ECE6E620ECF6EF6
:100548009E909D80CD80E3EF02F0FA0E0260AFEF3F
:1005580002F0B1EF02F0CEEF02F000EE02F0EFCFC2
:1005680028F2010EEF26030E02012827000E0201D1
:100578002825E96EEA6A000EEA22020127C2EFFF87
:10058800CD907F0ECE6E620ECF6E9E909D80CD80F8
:10059800D6EF02F00201286F000E00010001FF6F84
:1005A80002012851E3EF02F000010001FF51000AA7
:1005B80091E0010AA5E0030AC8E0D6EF02F01200B4
:1005C8000004D8A4EAEF02F0ECEF02F031EF03F0F8
:1005D8000201016F000E006E02010151020102C00A
:1005E80012F202010201136B030E02010201106FE5
:1005F800000E0201116FB8EC04F002011151101144
:10060800D8A409EF03F00BEF03F02BEF03F003047A
:10061800D8B411EF03F013EF03F01BEF03F0032836
:10062800D8A419EF03F01BEF03F023EF03F0020146
:10063800016F010E016E0201015129EF03F0020161
:10064800016F000E026E0201015131EF03F0020149
:10065800016F000E026E020101510150D8B437EF4C
:1006680003F039EF03F068EF03F00201016F000EA9
:10067800016E020101515FEF03F030EC00F068EF0A
:1006880003F05AEC04F068EF03F068EF03F002019E
:10069800016F000E016E020101510201016F000E8F
:1006A800026E020101510201016F000E006E02018B
:1006B800015168EF03F00450030ADFE0050AE1E0A6
:1006C800100AE3E04BEF03F012000201276F010E5E
:1006D80001010101366F02012751E4EF03F0CAEC72
:1006E80006F001010101344B352B0201276F020E80
:1006F80001010101396F02012751EDEF03F00101FA
:100708000101344B352B010101013451060A351121
:10071800D8A491EF03F093EF03F0D8EF03F0C4EC03
:1007280006F0000E01010101346F000E0101356F62
:10073800C4EC06F000010001FE51FD11D8B4A7EF8A
:1007480003F0A9EF03F0C9EF03F000010201FDC0B7
:100758002CF200010201FEC02DF2020102012E6BF3
:1007680002012F6BA00E02010201286F860E020102
:10077800296F010E02012A6F000E02012B6F5DEC3A
:1007880001F028C235F029C236F0000E0001000140
:10079800FD6F000E0001FE6F0201276F010E0101BF
:1007A8000101396F02012751EDEF03F00201276FB4
:1007B800010E01010101396F02012751EDEF03F02C
:1007C800010101013951010A8AE0030A98E0DAEFD0
:1007D80003F01200000E0F010F013A6F800E946EA5
:1007E800C00E826E000E0F010F01386F929ACD90E5
:1007F800CD9CCD9ECD98CD9A7F0ECE6E620ECF6EDB
:100808009E909D80CD80AB8EAC98470EAF6EAC9419
:10081800AB88AC8A9D8AA5EC06F0B2EC06F096ECA3
:1008280006F0BDEC06F057EC06F0F28CF28E0001F3
:1008380000013B053C11D8A424EF04F026EF04F096
:1008480029EF04F0808A2AEF04F0809AE4EC02F0A1
:10085800010101013851D8B434EF04F036EF04F047
:1008680056EF04F00201006F000E01010101386F1C
:1008780002010051010101013651D8B446EF04F0DC
:1008880048EF04F052EF04F00201006F000E01017E
:100898000101366F0201005156EF04F0000E356E6B
:1008A800000E366E1BEF04F00CEF00F0055002014D
:1008B8000201046F06500201036F07500201066F20
:1008C80008500201056FD8900201020103350201A8
:1008D800076F0201020104350201086F0001350E9D
:1008E80002010725E96E0001000E02010821EA6EE7
:1008F80005C2EEFF06C2EDFF0201056F000E020100
:100908000201026F02010551A9EF04F002C205F2CB
:10091800030E02010527000E02010525E96EEA6AA9
:10092800000EEA2202C206F2010E020106270101A8
:10093800000E02010625E16EE26A0101010EE222C3
:10094800EFCFE7FF02010201022B02500201020170
:10095800025DD8A0B2EF04F0B4EF04F08AEF04F01F
:1009680002C000F19D88120002010201146902010F
:1009780002011569F3EF04F010C2E9FF11C2EAFFA2
:10098800EF500201020115190201186F02011851F6
:1009980002010201166F0201176B02010201104BDE
:1009A800112BFE0E020102011625F66E7D0E0201C4
:1009B8001721F76E0800F55002010201141902010F
:1009C8000201156FFE0E020102011625F66E7E0E5B
:1009D80002011721F76E08000201F5CF14F2020197
:1009E80002011207D8A0130702011229D8B413294B
:1009F800D8A401EF05F003EF05F0C0EF04F0020101
:100A08000201145102010201116F02010201155184
:100A18000201106F10EF05F012009DA816EF05F007
:100A280018EF05F05FEF05F09EA81DEF05F01FEF2A
:100A380005F05FEF05F0010101010051D8B427EF7F
:100A480005F029EF05F05FEF05F033C127F2010E3D
:100A5800020127270101000E02012725E96EEA6A33
:100A68000101010EEA22EF50AD6E01010101332BA5
:100A780001010101005101010101336346EF05F055
:100A880048EF05F05FEF05F09D980201276F000E13
:100A980001010101336F020127510201276F000E86
:100AA80001010101006F020127510201276F000EA9
:100AB800026E020127511200EACF1CF2E1CF1DF2AB
:100AC800E2CF1EF2D9CF1FF2DACF20F2F3CF21F214
:100AD800F4CF22F2F6CF23F2F7CF24F2F8CF25F2A3
:100AE800F5CF26F254EC02F011EC05F0A3EC05F07A
:100AF8000DEC06F084EC06F0DBEC05F03CEC06F0BF
:100B080070EC06F026C2F5FF25C2F8FF24C2F7FFF5
:100B180023C2F6FF22C2F4FF21C2F3FF20C2DAFF8C
:100B28001FC2D9FF1EC2E2FF1DC2E1FF1CC2EAFFBD
:100B38001BC2E9FF1AC2FBFF19C2FAFF11009EA0EF
:100B4800A8EF05F0AAEF05F0DAEF05F09DA0AFEFEA
:100B580005F0B1EF05F0DAEF05F0CFEF05F002018F
:100B6800276F010E00010001FF6F02012751D8EF26
:100B780005F00201276F010E00010001FF6F02015D
:100B880027510201276F010E006E02012751D8EF8D
:100B980005F0D8EF05F000010001FF51000ADFE081
:100BA800020AE7E0CDEF05F0CD909E901200F2A486
:100BB800E0EF05F0E2EF05F00CEF06F0F2AAE7EF40
:100BC80005F0E9EF05F00CEF06F0FF0ED66E930E78
:100BD800D76EF29401010101372B01010101375150
:100BE800C80AD8A4FAEF05F0FCEF05F00CEF06F000
:100BF8000201276F010E01010101386F020127511F
:100C08000201276F000E01010101376F0201275110
:100C18001200A0A212EF06F014EF06F03BEF06F068
:100C2800A1A219EF06F01BEF06F03BEF06F0A19228
:100C3800CC0EB26ED40EB36E00010001FD4BFE2B3C
:100C480000010001FE51170A700ED8B4FD19D8A48E
:100C580030EF06F032EF06F03BEF06F0000E356E8F
:100C6800000E366E00010001FD07D8A0FE07120035
:100C7800F0A641EF06F043EF06F056EF06F0F0A0BD
:100C880048EF06F04AEF06F056EF06F0F090829A29
:100C9800FF0E0F010F014F6F270E0F01506F0F014D
:100CA8000F014E8112000F010F014E910F010F012C
:100CB8004E9D0F010F014E9F0F010F014E990F011D
:100CC8000F014E9BFF0E0F010F014F6F270E0F01F3
:100CD800506F7E927D8212007EA275EF06F077EF4C
:100CE80006F083EF06F07DA27CEF06F07EEF06F0BB
:100CF80083EF06F07E92828A0F010F014E91120057
:100D0800F2A289EF06F08BEF06F095EF06F0F2A855
:100D180090EF06F092EF06F095EF06F0F29269EC8C
:100D280003F01200D59ED59CD59AD580D592D5943E
:100D3800D596FF0ED66E930ED76EF294F28AD58EA4
:100D48001200B190B19CB19EB198B19ACC0EB26E1E
:100D5800D40EB36EA192A082B1801200000E0F01D2
:100D68000F01396F939081809380F19CF288F29201
:100D78001200939281929382F18AF086F090120089
:100D8800B190CC0EB26ED40EB36E1200CC0EB26E11
:080D9800D40EB36EB18012000D
:107DFE0000C1814001C0804101C0804100C181406D
:107E0E0001C0804100C1814000C1814001C080415C
:107E1E0001C0804100C1814000C1814001C080414C
:107E2E0000C1814001C0804101C0804100C181403C
:107E3E0001C0804100C1814000C1814001C080412C
:107E4E0000C1814001C0804101C0804100C181401C
:107E5E0000C1814001C0804101C0804100C181400C
:107E6E0001C0804100C1814000C1814001C08041FC
:107E7E0001C0804100C1814000C1814001C08041EC
:107E8E0000C1814001C0804101C0804100C18140DC
:107E9E0000C1814001C0804101C0804100C18140CC
:107EAE0001C0804100C1814000C1814001C08041BC
:107EBE0000C1814001C0804101C0804100C18140AC
:107ECE0001C0804100C1814000C1814001C080419C
:107EDE0001C0804100C1814000C1814001C080418C
:107EEE0000C1814001C0804101C0804100C181407C
:107EFE0000C0C101C30302C2C60607C705C5C4043C
:107F0E00CC0C0DCD0FCFCE0E0ACACB0BC90908C8AB
:107F1E00D81819D91BDBDA1A1EDEDF1FDD1D1CDC9B
:107F2E0014D4D515D71716D6D21213D311D1D0100B
:107F3E00F03031F133F3F23236F6F737F53534F4FB
:107F4E003CFCFD3DFF3F3EFEFA3A3BFB39F9F8386B
:107F5E0028E8E929EB2B2AEAEE2E2FEF2DEDEC2C5B
:107F6E00E42425E527E7E62622E2E323E12120E0CB
:107F7E00A06061A163A3A26266A6A767A56564A4BB
:107F8E006CACAD6DAF6F6EAEAA6A6BAB69A9A8682B
:107F9E0078B8B979BB7B7ABABE7E7FBF7DBDBC7C1B
:107FAE00B47475B577B7B67672B2B373B17170B08B
:107FBE00509091519353529296565797559594547B
:107FCE009C5C5D9D5F9F9E5E5A9A9B5B99595898EB
:107FDE00884849894B8B8A4A4E8E8F4F8D4D4C8CDB
:107FEE00448485458747468682424383418180404B
:027FFE00000081
:020000040030CA
:0E000000FF331F3FFFBF85FF0FC00FE00F4013
:00000001FF
