:040000000CEF00F011
:10000800FACF19F2FBCF1AF2E9CF1BF24CEF05F049
:1000180000EE71F06A0EF66E000EF76E0900F5CF6D
:10002800EEFF00EE00F010EE71F025EC00F001EEAE
:1000380000F010EEC8F025EC00F0000EF86E50EF5E
:1000480004F0EE6AE550E150FCE1E250FAE11200FA
:100058000900F5CFEEFFE550E150FAE1E250F8E192
:1000680012000100000E02010201076F000E0201DA
:10007800086F000E02010201056F000E0201066FF3
:100088000201096F000E02010201026F020109510B
:10009800055002010201046F06500201036F075068
:1000A80002010201086F08500201076F0201096F7F
:1000B800010E00010001366F020109510201096FAA
:1000C800030E00010001376F02010951020102010C
:1000D80007510201072500010001386F0201096F6D
:1000E800000E02010201026F02010951F2EF00F055
:1000F800020102010251020DF3CF09F2040E0201BE
:1001080009270001350E02010925E96EEA6A000196
:10011800000EEA2202010201025102010201032536
:1001280002010A6F000E02010201042102010B6F95
:10013800D89002010A3502010C6F02010B35020149
:100148000D6F0101000E02010C25E16E0101010E87
:1001580002010D21E26EE6CF0EF2E5CF0FF20FC2DB
:100168000EF202010F6B02010E51EF6E0201020145
:1001780002510201020103250201096F000E02016A
:100188000201042102010A6FD89002010935020117
:100198000B6F02010A3502010C6F0101000E02010A
:1001A8000B25E96E0101010E02010C21EA6E020124
:1001B80002010251020DF3CF0DF2050E02010D27C7
:1001C8000001350E02010D25E16EE26A0001000E04
:1001D800E222EFCFE7FF02010201022B020102C275
:1001E80009F202010A6B0201020107510201095DCD
:1001F80002010201085102010A59D8A006EF01F0D4
:1002080008EF01F07CEF00F0D890020102010735F9
:100218000201096F02010201083502010A6F030E8B
:100228000201092502010201126F000E02010A21D2
:100238000201136F0001360E02010201106F000166
:10024800000E0201116FAAEC04F010C205F211C2EF
:1002580006F20201D890020107350201096F040E67
:10026800020109270001350E02010925E96EEA6A33
:100278000001000EEA22020105C2EFFF0201D89038
:10028800020107350201096F050E02010927000165
:10029800350E02010925E96EEA6A0001000EEA221C
:1002A800020102010651EF6E02010201075102012B
:1002B8000725050F356E9D8812000201366F000E66
:1002C80002010201316F02013651020102012FAF12
:1002D80070EF01F072EF01F08AEF01F00201020104
:1002E8002F1F02012E1F02012D1F02012C6D000E6F
:1002F80002012D2302012E2302012F230201366F52
:10030800010E02010201316F0201365102010201A0
:100318002BAF91EF01F093EF01F0A7EF01F002018D
:1003280002012B1F02012A1F0201291F0201286D49
:10033800000E0201292302012A2302012B23010EA8
:1003480002010201311B000E02010201326F000E90
:100358000201336F000E0201346F000E0201356F87
:1003680002012F512C112D112E11D8B4BEEF01F01E
:10037800C0EF01F033EF02F00201366F010E020107
:100388000201306F02013651D7EF01F00201D89017
:1003980002012C3702012D3702012E3702012F37B7
:1003A80002010201302B020102012FAFDEEF01F042
:1003B800E0EF01F0CAEF01F00201D89002013237F4
:1003C80002013337020134370201353702010201D5
:1003D8002C5102010201285D020102012D51020186
:1003E80002012959020102012E51020102012A5972
:1003F800020102012F51020102012B59D8A007EF77
:1004080002F009EF02F024EF02F0020102012C5180
:1004180002010201285F020102012D5102010201BD
:10042800295B020102012E51020102012A5B02012D
:1004380002012F51020102012B5B020102013281EC
:100448000201D89002012F3302012E3302012D330D
:1004580002012C3302010201302FE0EF01F002010A
:1004680002013151D8B43BEF02F03DEF02F04DEFFD
:1004780002F002010201351F0201341F0201331F7D
:100488000201326D000E02013323020134230201FE
:10049800352332C228F233C229F234C22AF235C2D5
:1004A8002BF257EF02F012000201286F000E020132
:1004B8000201276F020128519DAA65EF02F067EF3C
:1004C80002F0E7EF02F09EAA6CEF02F06EEF02F086
:1004D800E7EF02F0AECF27F2DCEF02F0CD907F0E0F
:1004E800CE6E620ECF6E9E909D80CD800201286FE9
:1004F800000E026E020128510201286F000E006EE4
:1005080002012851E7EF02F000EE02F0EFCF28F2E7
:10051800010EEF26030E02012827000E02012825EE
:10052800E96EEA6A000EEA22020127C2EFFF020121
:10053800286F020E000100016A6F02012851CD9058
:100548007F0ECE6E620ECF6E9E909D80CD80E7EFBF
:1005580002F0FA0E0260B3EF02F0B5EF02F0D2EF4C
:1005680002F000EE02F0EFCF28F2010EEF26030EA4
:1005780002012827000E02012825E96EEA6A000E0A
:10058800EA22020127C2EFFFCD907F0ECE6E620EE7
:10059800CF6E9E909D80CD80DAEF02F00201286F29
:1005A800000E000100016A6F02012851E7EF02F016
:1005B800000100016A51000A91E0010AA5E0030A5E
:1005C800C8E0DAEF02F012000201276F010E000105
:1005D80000016E6F0201275163EF03F057EC06F03C
:1005E800000100016C4B6D2B0201276F020E000108
:1005F8000001716F020127516CEF03F00001000147
:100608006C4B6D2B000100016C51060A6D11D8A4CA
:1006180010EF03F012EF03F057EF03F051EC06F080
:10062800000E000100016C6F000E00016D6F51ECAF
:1006380006F00001000169516811D8B426EF03F0F3
:1006480028EF03F048EF03F00001020168C02CF224
:100658000001020169C02DF2020102012E6B0201A4
:100668002F6BA00E02010201286F860E0201296F6E
:10067800010E02012A6F000E02012B6F61EC01F0DE
:1006880028C200F129C201F1000E00010001686FC3
:10069800000E0001696F0201276F010E00010001C1
:1006A800716F020127516CEF03F00201276F010EF1
:1006B80000010001716F020127516CEF03F0000186
:1006C80000017151010A8AE0030A98E059EF03F02A
:1006D80012000004D8A473EF03F075EF03F0BAEF2B
:1006E80003F00201016F000E006E020101510201C8
:1006F80002C012F202010201136B030E0201020191
:10070800106F000E0201116FAAEC04F002011151E2
:100718001011D8A492EF03F094EF03F0B4EF03F0B4
:100728000304D8B49AEF03F09CEF03F0A4EF03F0AE
:100738000328D8A4A2EF03F0A4EF03F0ACEF03F072
:100748000201016F010E016E02010151B2EF03F0C7
:100758000201016F000E026E02010151BAEF03F0AF
:100768000201016F000E026E020101510150D8B45E
:10077800C0EF03F0C2EF03F0F1EF03F00201016FE5
:10078800000E016E02010151E8EF03F036EC00F0B3
:10079800F1EF03F0F2EC03F0F1EF03F0F1EF03F007
:1007A8000201016F000E016E020101510201016F89
:1007B800000E026E020101510201016F000E006E6F
:1007C80002010151F1EF03F00450030ADFE0050ACA
:1007D800E1E0100AE3E0D4EF03F012000550020153
:1007E8000201046F06500201036F07500201066FF1
:1007F80008500201056FD890020102010335020179
:10080800076F0201020104350201086F0101000EA1
:1008180002010725E96E0101010E02010821EA6EB5
:1008280005C2EEFF06C2EDFF0201056F000E0201D0
:100838000201026F0201055141EF04F002C205F204
:10084800030E02010527000E02010525E96EEA6A7A
:10085800000EEA2202C206F2010E0201062700017A
:10086800350E02010625E16EE26A0001000EE22261
:10087800EFCFE7FF02010201022B02500201020141
:10088800025DD8A04AEF04F04CEF04F022EF04F028
:1008980002C035F09D881200000E0F010F013A6F5B
:1008A800800E946EC00E826E000E0F010F01386F1D
:1008B800929ACD90CD9CCD9ECD98CD9A7F0ECE6E3E
:1008C800620ECF6E9E909D80CD80AB8EAC98470E09
:1008D800AF6EAC94AB88AC8A9D8A39EC06F046ECD6
:1008E80006F0F28CF28E6DEC03F0000100017051FD
:1008F800D8B481EF04F083EF04F0A6EF04F002010E
:10090800006F000E00010001706F0201005100012C
:1009180000016E51D8B493EF04F095EF04F09FEF07
:1009280004F00201006F000E000100016E6F020169
:100938000051A6EF04F00A0E01010101006F000E3C
:100948000101016F77EF04F00CEF00F002010201E2
:100958001469020102011569E5EF04F010C2E9FF0C
:1009680011C2EAFFEF500201020115190201186FC6
:100978000201185102010201166F0201176B0201F0
:100988000201104B112BFE0E020102011625F66E14
:100998007D0E02011721F76E0800F55002010201D1
:1009A800141902010201156FFE0E0201020116253B
:1009B800F66E7E0E02011721F76E08000201F5CFD0
:1009C80014F2020102011207D8A01307020112292A
:1009D800D8B41329D8A4F3EF04F0F5EF04F0B2EF7C
:1009E80004F002010201145102010201116F020117
:1009F800020115510201106F02EF05F012009DA8C7
:100A080008EF05F00AEF05F04BEF05F09EA80FEF91
:100A180005F011EF05F04BEF05F03550D8B417EF9E
:100A280005F019EF05F04BEF05F06BC027F2010E4A
:100A3800020127270001350E02012725E96EEA6A1F
:100A48000001000EEA22EF50AD6E000100016B2B91
:100A58003550000100016B6334EF05F036EF05F007
:100A68004BEF05F09D980201276F000E0001000171
:100A78006B6F020127510201276F000E356E0201CC
:100A880027510201276F000E026E02012751120042
:100A9800EACF1CF2E1CF1DF2E2CF1EF2D9CF1FF24E
:100AA800DACF20F2F3CF21F2F4CF22F2F6CF23F2FD
:100AB800F7CF24F2F8CF25F2F5CF26F258EC02F062
:100AC80003EC05F08BEC05F0C3EC05F027EC06F021
:100AD800F5EC05F026C2F5FF25C2F8FF24C2F7FFA2
:100AE80023C2F6FF22C2F4FF21C2F3FF20C2DAFFBD
:100AF8001FC2D9FF1EC2E2FF1DC2E1FF1CC2EAFFEE
:100B08001BC2E9FF1AC2FBFF19C2FAFF11009EA01F
:100B180090EF05F092EF05F0C2EF05F09DA097EF7A
:100B280005F099EF05F0C2EF05F0B7EF05F0020107
:100B3800276F010E000100016A6F02012751C0EF03
:100B480005F00201276F010E000100016A6F020122
:100B580027510201276F010E006E02012751C0EFD5
:100B680005F0C0EF05F0000100016A51000ADFE05E
:100B7800020AE7E0B5EF05F0CD909E901200A0A222
:100B8800C8EF05F0CAEF05F0F4EF05F0A1A2CFEF2A
:100B980005F0D1EF05F0F4EF05F0A192CC0EB26E9E
:100BA800D40EB36E00010001684B692B00010001EF
:100BB8006951170A700ED8B46819D8A4E6EF05F081
:100BC800E8EF05F0F4EF05F0000E01010101006FF8
:100BD800000E0101016F000100016807D8A0690734
:100BE8001200F2A4FAEF05F0FCEF05F026EF06F08C
:100BF800F2AA01EF06F003EF06F026EF06F0FF0E6B
:100C0800D66E930ED76EF294000100016F2B00018F
:100C180000016F51C80AD8A414EF06F016EF06F0C9
:100C280026EF06F00201276F010E00010001706F28
:100C3800020127510201276F000E000100016F6FAA
:100C4800020127511200F2A22CEF06F02EEF06F057
:100C580038EF06F0F2A833EF06F035EF06F038EF7C
:100C680006F0F292E8EC02F01200B190B19CB19E4D
:100C7800B198B19ACC0EB26ED40EB36EA192A08286
:100C8800B1801200000E0F010F01396F939081801F
:100C98009380F19CF288F2921200B190CC0EB26E61
:100CA800D40EB36E1200CC0EB26ED40EB36EB180F9
:020CB800120028
:107DFE0000C1814001C0804101C0804100C181406D
:107E0E0001C0804100C1814000C1814001C080415C
:107E1E0001C0804100C1814000C1814001C080414C
:107E2E0000C1814001C0804101C0804100C181403C
:107E3E0001C0804100C1814000C1814001C080412C
:107E4E0000C1814001C0804101C0804100C181401C
:107E5E0000C1814001C0804101C0804100C181400C
:107E6E0001C0804100C1814000C1814001C08041FC
:107E7E0001C0804100C1814000C1814001C08041EC
:107E8E0000C1814001C0804101C0804100C18140DC
:107E9E0000C1814001C0804101C0804100C18140CC
:107EAE0001C0804100C1814000C1814001C08041BC
:107EBE0000C1814001C0804101C0804100C18140AC
:107ECE0001C0804100C1814000C1814001C080419C
:107EDE0001C0804100C1814000C1814001C080418C
:107EEE0000C1814001C0804101C0804100C181407C
:107EFE0000C0C101C30302C2C60607C705C5C4043C
:107F0E00CC0C0DCD0FCFCE0E0ACACB0BC90908C8AB
:107F1E00D81819D91BDBDA1A1EDEDF1FDD1D1CDC9B
:107F2E0014D4D515D71716D6D21213D311D1D0100B
:107F3E00F03031F133F3F23236F6F737F53534F4FB
:107F4E003CFCFD3DFF3F3EFEFA3A3BFB39F9F8386B
:107F5E0028E8E929EB2B2AEAEE2E2FEF2DEDEC2C5B
:107F6E00E42425E527E7E62622E2E323E12120E0CB
:107F7E00A06061A163A3A26266A6A767A56564A4BB
:107F8E006CACAD6DAF6F6EAEAA6A6BAB69A9A8682B
:107F9E0078B8B979BB7B7ABABE7E7FBF7DBDBC7C1B
:107FAE00B47475B577B7B67672B2B373B17170B08B
:107FBE00509091519353529296565797559594547B
:107FCE009C5C5D9D5F9F9E5E5A9A9B5B99595898EB
:107FDE00884849894B8B8A4A4E8E8F4F8D4D4C8CDB
:107FEE00448485458747468682424383418180404B
:027FFE00000081
:020000040030CA
:0E000000FF331F3FFFBF85FF0FC00FE00F4013
:00000001FF
